:10000000020C84020ECED2B0000000C2B00213FB7C
:10001000AF6022020F338F828E83E5821582AE831A
:10002000700215834E60097F147E0012147680EAF8
:0100300022AD
:10003300020D10E709F608DFFA8046E709F208DF48
:10004300FA803E88828C83E709F0A3DFFA8032E3EB
:1000530009F608DFFA8078E309F208DFFA8070888E
:10006300828C83E309F0A3DFFA806489828A83E0C8
:10007300A3F608DFFA805889828A83E0A3F208DFB7
:10008300FA804C80D280FA80C680D4806980F28066
:1000930033801080A680EA809A80A880DA80E2808C
:1000A300CA803389828A83ECFAE493A3C8C582C8E1
:1000B300CCC583CCF0A3C8C582C8CCC583CCDFE94B
:1000C300DEE7800D89828A83E493A3F608DFF9ECE7
:1000D300FAA9F0EDFB2289828A83ECFAE0A3C8C572
:1000E30082C8CCC583CCF0A3C8C582C8CCC583CC99
:1000F300DFEADEE880DB89828A83E493A3F208DF08
:10010300F980CC88F0EF60010E4E60C388F0ED24D7
:1001130002B4040050B9F582EB2402B4040050AFDA
:10012300232345822390008673C2D530F707B2D5C7
:1001330063F0FF05F030E70CB2D5F4048463F0FFFD
:1001430005F080018430D502F40422BB01068982C4
:100153008A83E0225002E722BBFE02E32289828ADD
:1001630083E49322C2D5EC30E709B2D5E4C39DFD05
:10017300E49CFCEE30E715B2D5E4C39FFFE49EFE9A
:100183001202E4C3E49DFDE49CFC80031202E4300C
:10019300D507C3E49FFFE49EFE22E88FF0A4CC8B37
:1001A300F0A42CFCE98EF0A42CFC8AF0EDA42CFC2A
:1001B300EA8EF0A4CDA8F08BF0A42DCC3825F0FD69
:1001C300E98FF0A42CCD35F0FCEB8EF0A4FEA9F062
:1001D300EB8FF0A4CFC5F02ECD39FEE43CFCEAA4AE
:1001E3002DCE35F0FDE43CFC2275F008758200EF5E
:1001F3002FFFEE33FECD33CDCC33CCC58233C58256
:100203009BED9AEC99E58298400CF582EE9BFEED0E
:100213009AFDEC99FC0FD5F0D6E4CEFBE4CDFAE4DD
:10022300CCF9A88222B800C1B90059BA002DEC8BD1
:10023300F084CFCECDFCE5F0CBF97818EF2FFFEEAD
:1002430033FEED33FDEC33FCEB33FB10D703994066
:1002530004EB99FB0FD8E5E4F9FA227818EF2FFFA6
:10026300EE33FEED33FDEC33FCC933C910D7059BE8
:10027300E99A4007EC9BFCE99AF90FD8E0E4C9FA44
:10028300E4CCFB2275F010EF2FFFEE33FEED33FDD0
:10029300CC33CCC833C810D7079BEC9AE899400AF3
:1002A300ED9BFDEC9AFCE899F80FD5F0DAE4CDFB71
:1002B300E4CCFAE4C8F922EB9FF5F0EA9E42F0E9B8
:1002C3009D42F0EC6480C864809845F022E8601099
:1002D300ECA2E713FCED13FDEE13FEEF13FFD8F0D2
:1002E30022BC000BBE0029EF8DF084FFADF022E4A9
:1002F300CCF875F008EF2FFFEE33FEEC33FCEE9DE8
:10030300EC984005FCEE9DFE0FD5F0E9E4CEFD220E
:10031300EDF8F5F0EE8420D21CFEADF075F008EF99
:100323002FFFED33FD4007985006D5F0F222C39816
:10033300FD0FD5F0EA22BB010CE58229F582E583A6
:100343003AF583E0225006E92582F8E622BBFE0651
:10035300E92582F8E222E58229F582E5833AF583ED
:10036300E49322BB010689828A83F0225002F7229A
:10037300BBFE01F322FAE6FB0808E6F925F0F618BE
:10038300E6CA3AF622D083D082F8E493701274015D
:1003930093700DA3A393F8740193F5828883E47398
:1003A3007402936860EFA3A3A380DFE5522446F8A9
:1003B300E605522278433007027846E475F00112CD
:1003C300037802014E2000EB7F2ED2008018EF54F9
:1003D3000F2490D43440D4FF30040BEF24BFB41A5D
:1003E3000050032461FFE553600215530556E5569B
:1003F3007002055530070D7843E475F00112037858
:10040300EF0203660213847403D2078003E4C20776
:10041300F5528B438A448945E4F553F555F556E582
:100423005360077F201203E980F57554FFC201C2B0
:1004330000C202C203C205C206C2081203B7FF709C
:100443000D3007057F001203FAAF56AE5522B425CF
:100453005FC2D5C2041203B7FF24D0B40A00501AF6
:1004630075F00A785330D50508B6FF0106C6A426F1
:10047300F620D5047002D20380D924CFB41A00EF3A
:100483005004C2E5D2040205FAD20180C6D200802C
:10049300C0D20280BCD2D580BAD20580B47F2012EC
:1004A30003E92002077401B5530040F11203AEFFC4
:1004B3001203E9020422D208D20680951203AEFB8E
:1004C3001203AEFA1203AEF94A4B700679CB7A06E1
:1004D3007BFF20022EE553602A7E008E8275830007
:1004E30012033960060EEE655470F0C2D5EBC0E01E
:1004F300EAC0E0E9C0E0EE120641D0E0F9D0E0FA4C
:10050300D0E0FB12014EFF60AAEBC0E0EAC0E0E9D5
:10051300C0E01203E9D0E02401F9D0E03400FAD0BE
:10052300E0FBE5540460DCD554D980877BFF7A0671
:10053300793DD202809C791080027908C206C208F4
:100543008008D2D5790A8004790AC2D5E5540470AB
:1005530002F554E4FAFDFEFF1203AEFC7B08200112
:10056300131203AEFD7B1030000A1203AEFE12031A
:10057300AEFF7B20EC3382D592D55013C3E4300019
:10058300069FFFE49EFEE42001039DFDE49CFCE442
:10059300CBF8C201EC700CCFCECDCCE824F8F870C8
:1005A300F38017C3EF33FFEE33FEED33FDEC33FC83
:1005B300EB33FB994002FB0FD8E9EB300105F8D090
:1005C300E0C448B201C0E00AEC4D4E4F78207B00F6
:1005D30070C2EAB5540040BCC0E0120643D0F0D06C
:1005E300E0200104C4C0E0C4B201C0F01203D2D0C1
:1005F300F0D5F0EB02042212038804BF53053958E7
:1006030004904C048C42053D4F054544054549047F
:10061300A543054B55052F46052F45052F4706EBEB
:100623005004942D04982E04BB2B049C2304B9205E
:1006330006D42A045448000004B33F3F3F00790A1C
:10064300A2D5200314300509B910020404B9080126
:1006530004A2D52006025001042002689202B55379
:10066300005034C0E07F203003197F30A2027206AD
:100673007205500F12069AC202C206C205C2087F53
:1006830030800F300503E9C0E01203E9300503D0E1
:10069300E0F9D0E0B553CC3005177F30B9100C1218
:1006A30003E97F583004077F788003B908031203F6
:1006B300E93002057F2D0203E97F202008F87F2B14
:1006C3002006F322920280CF286E756C6C2900D22B
:1006D300011203AE3001F8C201785330D50108F698
:1006E3000204542D504349581203AE2403B40500A9
:1006F3004001E49006E6931203DA743A1203DAD265
:1007030003755304020539BF010BBD0104751301C1
:1007130022E4F51322EF640260030207F9EDB40A41
:10072300004003020918900730F828287302074E87
:1007330002075302075A02076E0207810207930258
:1007430007A80207BE0207CF0207E3E4F511807F83
:10075300E4F511F514806A751101751401E4F515BA
:10076300751601751701F5120207F5751101751458
:1007730001E4F515F51675170175120180747511ED
:1007830001E4F514751501F516F51775120180626C
:10079300751101751401751501E4F51675170175C9
:1007A3001201F510227511017514017515017516E5
:1007B30001751701751201E4F51022E4F5117514A2
:1007C30001F515F516F517751201802675110175DA
:1007D3001401751501751601751701751201801243
:1007E300751101751401751501E4F5167517017579
:1007F300120175100122EF640360030208DAEDB4FD
:100803000A004003020918900811F8282873020807
:100813002F02083402083B02084F020862020874E0
:1008230002088902089F0208B00208C4E4F509809F
:100833007FE4F509F50C806A750901750C01E4F58F
:100843000D750E01750F01F50A0208D675090175BC
:100853000C01E4F50DF50E750F01750A0180747531
:100863000901E4F50C750D01F50EF50F750A01800C
:1008730062750901750C01750D01E4F50E750F0123
:10088300750A01F50822750901750C01750D0175CD
:100893000E01750F01750A01E4F50822E4F50975E7
:1008A3000C01F50DF50EF50F750A0180267509018A
:1008B300750C01750D01750E01750F01750A018027
:1008C30012750901750C01750D01E4F50E750F0123
:1008D300750A0175080122EF64047014F513F5110C
:1008E300F514F515F516F517F512F510F509801938
:1008F300EF64057020F513751101F514F515F51660
:10090300F517F512F510750901F50CF50DF50EF552
:100913000FF50AF50822E4F524F525F526F5271247
:100923000010EF60030209E81214D68E248F25D33A
:10093300E5259571E52495704021E5259571FFE541
:10094300249570FEC3EF9402EE94004038E525240D
:10095300FFF571E52434FFF570802AC3E525957111
:10096300E5249570501FC3E5719525FFE570952427
:10097300FEC3EF9402EE9400400BE5252401F571CC
:10098300E43524F570E525646445247005F5707538
:1009930071641214DBEF3395E0F5268F27D3E52737
:1009A3009571E52695704015E5279571FFE5269528
:1009B30070FEC3EF9402EE94005002801FC3E5273C
:1009C3009571E52695705018C3E5719527FFE5707D
:1009D3009526FEC3EF9402EE94005004AF278002E5
:1009E300AF71120FFC228E268F2778287C007D00A2
:1009F3007BFF7A1579AB7E007F0A120106E4F5329C
:100A0300F533856C6E856D6F856A6C856B6D856856
:100A13006A85696B85666885676985266685276744
:100A230085662885672985682A85692B856A2C85CB
:100A33006B2D856C2E856D2F856E30856F31FFFE96
:100A4300E4FDFCC374049FFBE49EFAC3ED9BEA64DC
:100A530080F8EC648098504DED25E0242AF8E6FAFE
:100A630008E6FBED25E02428F8E6F58308E6F582A1
:100A7300C39BE5839A5027858332858233ED25E036
:100A8300242AF8E6FA08E6FBED25E02428F8A60276
:100A930008A603ED25E0242AF8A63208A6330DBDE7
:100AA30000010C809E0FBF00010EEF64044E709096
:100AB300AE2CAF2D227FCA120006E50925E04508BA
:100AC300FFE50A25E025E04FFFE50B33333354F808
:100AD3004FFF1213FB7FCB120006E50D25E0450CFB
:100AE300FFE50E25E025E04FFFE50F33333354F8E0
:100AF3004FFFE510C454F04FFFE511C43354E04FEA
:100B0300FFE512C4333354C04FFFE513C43333330B
:100B130054804FFF1213FB7FCE120006E51525E02C
:100B23004514FFE51625E025E04FFFE51733333382
:100B330054F84FFFE518C454F04FFFE519C433547C
:100B4300E04FFFE51AC4333354C04FFFE51BC433F2
:100B5300333354804FFF0213FBE4F522F523FF7E6A
:100B6300C27D01FC1210B3D2AF7BFF7A1579B512A7
:100B730012C21212FC1211AC12148CE4FF120FFCFD
:100B830012145DE4FF12115F0523E52370020522B1
:100B9300AE22FF7C007D64120167ED4C7009120ADE
:100BA300B81211F6120E67AE22AF237C007D32120B
:100BB3000167ED4C7003120BF0AE22AF237C017D75
:100BC300F4120167ED4C7009120F98120D8A120985
:100BD30019D3E5239410E522648094A74006752277
:100BE300007523017F017E00120016809BAF62EF28
:100BF3003395E0FEEFB55C09EEB55B05E565B40141
:100C0300168E5B8F5CAF62120FFCE4F55DF55E75CB
:100C13005F017560018066E55F64017060055EE5F4
:100C23005E7002055D6419455D7002802BE55E64AC
:100C33001E455D70028012E55E6423455D7002808F
:100C430017E55E6428455D7007AF62120FFC802DC7
:100C5300E55E642D455D700512149E8020E55E649B
:100C630032455D7018AF62120FFC12110BE4F55F91
:100C7300F55DF55E7564011214BDE4F560E4F56598
:100C830022787FE4F6D8FD758173020CCB020B5CEE
:100C9300E493A3F8E493A34003F68001F208DFF49E
:100CA3008029E493A3F85407240CC8C333C4540F16
:100CB3004420C8834004F456800146F6DFE4800BE9
:100CC3000102040810204080901059E47E019360D3
:100CD300BCA3FF543F30E509541FFEE493A3600116
:100CE3000ECF54C025E060A840B8E493A3FAE49380
:100CF300A3F8E493A3C8C582C8CAC583CAF0A3C82E
:100D0300C582C8CAC583CADFE9DEE780BEC0E0C0CA
:100D1300F0C083C082C0D075D000C007E59A30E030
:100D230023E59A54FC4401F59A900100E004F0E0B5
:100D330075F06484E5F0F0E02402F582E43401F513
:100D430083E59BF0E59A30E131E59A54FC4402F5E2
:100D53009A90017BE0FF90017AE06F601BA3E004AF
:100D6300F0E075F01484E5F0F0E02466F582E434F5
:100D730001F583E0F59B8002C209D007D0D0D08271
:100D8300D083D0F0D0E0321214D68E248F251214E3
:100D9300DB8F261214DE8F271214E1E5277003EF91
:100DA3006053AF26EF3395E0FED3EF9525EE952400
:100DB300403BEF9525FFEE9524FED3EF940AEE9486
:100DC3000040047F64801FAF26EF3395E0FEC3EF3E
:100DD3009525FFEE9524FED3EF9405EE9400400491
:100DE3007F1E80027F0A12115F751D01221214CB30
:100DF300E4F51D8001E4FF12115F2290017BE0FD09
:100E030090017AE0FCC39D5006C3ED9CFE800DED7E
:100E13002414FE90017AE0FDC3EE9DFEEED394010F
:100E230040D9C2AE90017AE004F0E075F01484E595
:100E3300F0F0E02466F582E43401F583EFF0200955
:100E430020D2AE90017BE004F0E075F01484E5F06D
:100E5300F0E02466F582E43401F583E0F59BD209E2
:100E630022D2AE22E56164017060208638E559B470
:100E7300010612110BE4F559055AE55AB41E19E59A
:100E830063B4010B1214B612110BE4F5638009125B
:100E930014AF12110B756301D3E55A6480949E401D
:100EA30029755A1F22E559701BC3E55A648094942F
:100EB3005012E56470087564011214BD8006E4F5F0
:100EC300641214C4755901E4F55A22C0E0C0F0C09D
:100ED30083C082C0D075D000C000C001C002C0036F
:100EE300C004C005C006C007E56164017027E5655D
:100EF300702320871D30B51A7F0AFE120016208743
:100F03001130B50E0562D3E562648094E440037545
:100F13006264756501D007D006D005D004D003D034
:100F230002D001D000D0D0D082D083D0F0D0E03234
:100F3300C0E0C0F0C083C082C0D075D000C000C084
:100F430001C002C003C004C005C006C007E5616458
:100F5300017027E565702330871D20B51A7F0AFECF
:100F630012001630871120B50E1562C3E562648046
:100F7300948B500375620B756501D007D006D005BD
:100F8300D004D003D002D001D000D0D0D082D083FF
:100F9300D0F0D0E032E4F524F525FDFC12128412E2
:100FA30009E912135CAC06AD07ED4C6009C3ED947F
:100FB3002CEC94015006E4F572F57322E4F524F564
:100FC30025E52525E0FFE52433FE74F72FF582742C
:100FD300143EF583D37401939DE4939C500E052531
:100FE300E52570020524645A452470D5C3746495BD
:100FF30025F573E49524F57222AE07D3EE6480944D
:10100300E440027E64BE640F7D017F0112070A1D66
:101013000F12070A0F8035D3EE6480948A500EE4D2
:10102300FD7F0112070A7F0512070A801FE4FD7F77
:101033000112070AEE75F00A12012CFD7F02120756
:101043000AEE75F00A12012CADF07F0312070A7D38
:10105300017F0402143C016101016300016400018A
:1010630062640160000165000157010158000159E4
:1010730001015A00025B0064025D0000015F00147D
:101083000800000000000000000000000000000055
:101093000000000000027200000A66000000000069
:1010A300000000000002700000011D00011C01008F
:1010B3008F278E268D258C24E490017AF0A3F0905F
:1010C3000100F0A3F0C2097F20FEFDFCAB27AA2696
:1010D300A925A82412019DA804A905AA06AB077F88
:1010E300007E407D387C00120228C3E49FFF740415
:1010F3009EAD07FC90800A7403F0908009F08C9DEC
:101103008D9C759AD0D2AE22E4F527F526F525F508
:1011130024F527F526F525F524E47F2C7E01FDFC37
:10112300AB27AA26A925A824C31202BA502DD2B1EF
:101133007F037E00121476C2B17F037E0012147601
:10114300E4FAF9F8E5272401F527EA3526F526E937
:101153003525F525E83524F52480BE228F28E51CA6
:1011630065286044E4FCFDFE7BCC7A1CF9F812018F
:101173009DE47B64FAF9F812124078081202D08FCA
:10118300D1AF28E4FCFDFE7BCC7A1CF9F812019D5B
:10119300E47B64FAF9F81212408FDF75D901E5D9BF
:1011A30070FC75D80185281C229080007481F09012
:1011B3008120E054DFF09080197442F0908139E08F
:1011C30054EFF09080067481F0908126E054DFF0B4
:1011D3009080077401F0758F07D2A8D289D288D284
:1011E300B890801DF0758E1DD2AAD28BD28AD2BA46
:1011F300C2B122208040E557B4010BE561B401037D
:1012030012110BE4F5570558E558B41E1CE561B4FB
:10121300010EE4F5611214D1E4F5641214B68009E9
:101223007561011214A812110BD3E5586480949EC2
:10123300400A75581F22755701E4F55822C2D5E8B4
:1012430030E70FB2D5E4C39BFBE49AFAE499F9E4DF
:1012530098F8EC30E717B2D5121276120228E4C3DD
:101263009BFBE49AFAE499F9E498F88003120228C4
:1012730030D50DE4C39FFFE49EFEE49DFDE49CFC9A
:101283002243B980E5B930E5FB43B920AFBDEFFE9A
:10129300ADBC7C00E42DF527EC3EF526C4F854F0F4
:1012A300C868F526E527C4540F48F5277BFF7A1451
:1012B30079E485262BF52C1212C2AE26AF27228B9A
:1012C300288A29892A753A00753B00753C2B8B3D8A
:1012D3008A3E893F853A40853B41853C427B017A82
:1012E30000790012132E7B017A0079001213D17555
:1012F3003A00753B00753C00229080087482F090A0
:101303008128E054DFF09080017482F0908121E025
:1013130054DFF09080187482F0908138E054DFF04D
:1013230090801C7422F0C2B402141B853D46853E96
:1013330047853F48EBC540FBEAC541FAE9C542F999
:101343007F09784912014EF60809E970010ADFF4B2
:10135300AB40AA41A94202040AE4FDFCD3EF940A7C
:10136300EE94004017AB07AA06E4F9F8FF7E407D30
:1013730006121240EF249CFDEE34FFFCAE04AF05D1
:1013830022EFB40A07740D12138F740A309811A850
:1013930099B8130CC2983098FDA899C298B811F661
:1013A3003099FDC299F5992290FC017480F0E49084
:1013B300FC06F090FC057424F090FC017481F0901D
:1013C300FC02E0FFE490FC01F0EF543FFF228B3D71
:1013D3008A3E893FAB3DAA3EA93F12014E601305E9
:1013E3003FE53F7002053E14F912014EFF120DFE58
:1013F30080E222120006E4FFE4FEC281EF30E00443
:10140300D2908002C290000000D281EFC313FF0E7E
:10141300BE08E7C281C29022E4FF1200067F441295
:1014230000067F971200067FCA1213F67FCB1213B2
:10143300F67FCE1213F6D2B022EF24FE60101460B2
:10144300101460101460102404700E8D1A228D196C
:10145300228D18228D0B228D1B2243A14090800DDB
:101463007406F0E4F5C075DB0175DC6475DE1C758C
:10147300DDCC22EF1FAA0670011E4A600BE4FDEDCE
:10148300C3940F50EE0D80F72290800E7405F07513
:10149300B91D1213AB8FBB75BAE722E4FD7F0412AB
:1014A300070A02143CC2B4E4FF020FFC7D017F0172
:1014B30002143CE4FD7F0102143C7D017F0502140C
:1014C3003CE4FD7F0502143CE4F5640214C4D2B489
:1014D30002141BAE72AF7322AF6222AF6422AF63FA
:1014E300224144432056616C7565203D20307825A8
:1014F300780A0D00030C03160320032A0334033E6A
:1015030003480352035C03660370037A0384038E68
:1015130003A203B603CA03DE03FC041A04380460FF
:10152300048804B004E205140546057805AA05DC21
:10153300060E0640067206A406D60708075807A833
:1015430007F80848089808FC096009C40A280A8CA7
:101553000AF00B540BB80C6C0D200DE80E920F46DD
:101563001004109A113011C6125C12F21388141E63
:1015730014B4154A15E01676170C17A2183818CEAE
:10158300196419FA1A901B261BBC1C521D7E1EAA35
:101593001FD62102222E238C248625E427742904B6
:1015A3002A942C242DB42EE000000000000000003B
:1015B30000004750494F2044656D6F20436F6465B9
:0215C3000A001C
:00000001FF
